:0400000099EF05F07F
:10000800F2A406D0F294480ED76EE50ED66E8C7028
:020018001100D5
:10001A0002018F6B080E8F5D11E28EAF02D08288CB
:10002A0001D082988E378E91828682AA02D08E81E2
:10003A0002D0FE0E8E1782968F2BECD78EC200F05E
:02004A001200A2
:10004C00086A096A100E0C6E013408360936045021
:10005C00085E0550D8A0053C095ED8B007D0045006
:10006C0008260550D8B0053C0926D8900036013634
:06007C000C2EEAD7120071
:1000820002018D078D078DC201F08D070150000816
:1000920003E200000000F7D70000000000000000AB
:0400A2000000120048
:1000A6000B6A0A6A096A086A0E6A0334083604503B
:1000B600085E0550D8A0053C095E0650D8A0063C4F
:1000C6000A5E0750D8A0073C0B5EE86AD8A0010E6E
:1000D6000E5E0336070E0C6E0334083609360A36F2
:1000E6000B360E36045003A012D0085E0550D8A079
:1000F600053C095E0650D8A0063C0A5E0750D8A00B
:10010600073C0B5EE86AD8A0010E0E5E11D00826E9
:100116000550D8B0053C09260650D8B0063C0A263C
:100126000750D8B0073C0B26E86AD8B0010E0E2659
:1001360003360C2ED1D70234083609360A360B366A
:100146000E36045003A012D0085E0550D8A0053C18
:10015600095E0650D8A0063C0A5E0750D8A0073CA8
:100166000B5EE86AD8A0010E0E5E11D00826055077
:10017600D8B0053C09260650D8B0063C0A260750DA
:10018600D8B0073C0B26E86AD8B0010E0E26023618
:10019600070E0C6E0234083609360A360B360E3652
:1001A600045002A012D0085E0550D8A0053C095E96
:1001B6000650D8A0063C0A5E0750D8A0073C0B5E46
:1001C600E86AD8A0010E0E5E11D008260550D8B0F8
:1001D600053C09260650D8B0063C0A260750D8B07A
:1001E600073C0B26E86AD8B0010E0E2602360C2E06
:1001F600D1D70134083609360A360B360E36045086
:1002060002A012D0085E0550D8A0053C095E065033
:10021600D8A0063C0A5E0750D8A0073C0B5EE86AE9
:10022600D8A0010E0E5E11D008260550D8B0053CA8
:1002360009260650D8B0063C0A260750D8B0073C17
:100246000B26E86AD8B0010E0E260136070E0C6E94
:100256000134083609360A360B360E36045001A02C
:1002660012D0085E0550D8A0053C095E0650D8A0FD
:10027600063C0A5E0750D8A0073C0B5EE86AD8A089
:10028600010E0E5E11D008260550D8B0053C092691
:100296000650D8B0063C0A260750D8B0073C0B26B5
:1002A600E86AD8B0010E0E2601360C2ED1D70034DE
:1002B600083609360A360B360E36045001A012D01F
:1002C600085E0550D8A0053C095E0650D8A0063C3D
:1002D6000A5E0750D8A0073C0B5EE86AD8A0010E5C
:1002E6000E5E11D008260550D8B0053C09260650EA
:1002F600D8B0063C0A260750D8B0073C0B26E86A59
:10030600D8B0010E0E260036070E0C6E00340836E5
:1003160009360A360B360E36045000A012D0085E97
:100326000550D8A0053C095E0650D8A0063C0A5EDA
:100336000750D8A0073C0B5EE86AD8A0010E0E5EF7
:1003460011D008260550D8B0053C09260650D8B06D
:10035600063C0A260750D8B0073C0B26E86AD8B0F8
:10036600010E0E2600360C2ED1D700B00ED004504A
:1003760008260550D8B0053C09260650D8B0063CDC
:0C0386000A260750D8B0073C0B261200D6
:10039200800E006E380E016E010E026E000E036EAC
:0203A200120047
:1003A400220E0C6E086A096A0A6A0B6A0C06D8B433
:1003B4001FD0D8900B320A3209320832033202328B
:1003C40001320032D8A0F2D70C06D8B409D00450B8
:1003D40008260550092206500A2207500B22EAD7A4
:1003E400045008260550092206500A2207500B2201
:0203F4001200F5
:0E03F600ACB202D00000FCD78DC2ADFF1200E9
:10040400848082968490440E02018E6F04DE8E6B8B
:0E04140002DE00C08DF284808DC200F0120066
:1004220081C242F282C243F283C201F0010E006E27
:10043200015004E000360090FF0FFBD700C041F2EC
:10044200001E00C040F2120E02018125E96E000E6C
:100452008221EA6E0050EF16120EE95E0050EF168E
:02046200120086
:100464000B6A0A6A096A00500402F4CF09F0F3CF58
:1004740008F001500502F4CF0BF0F3CF0AF000505E
:100484000502F3500926F4500A22E86A0B220150AF
:100494000402F3500926F4500A22E86A0B2208C029
:1004A40000F009C001F00AC002F00BC003F0120012
:1004B4000201846B8451FF0A04E0A2DF00C084F2CD
:1004C400F9D782968490846B8151845D0DE28451C6
:1004D4008225E96E000E8321EA6EEECF85F285C295
:0C04E4008EF299DD842BF0D7848012008A
:1004F000850ED56E480ED76EE50ED66EF28EF28A58
:020500001200E7
:10050200F60E0201446F030E456F8D0E466F020E0A
:10051200476FFF0E506FFF0E516F000E526F000EAD
:10052200536FFF0E4C6FFF0E4D6F000E4E6F000E9D
:100532004F6FFF0E486FFF0E496F000E4A6F000E9D
:100542004B6FAC8A900EAB6E948E949C9EAA03D095
:08055200AECF00F0FBD7120050
:10055A001BDFE80E046E030E056E000E066E076EB4
:10056A001CDF00C089F201C08AF202C08BF203C00C
:10057A008CF281C204F082C205F0000E066E076E8C
:10058A008DDD00C089F201C08AF202C08BF203C07D
:10059A008CF200C005F001C006F002C007F003C0EB
:1005AA0008F00832073206320532089E083207324E
:1005BA0006320532089E05C000F006C001F007C0E9
:1005CA0002F008C003F00332023201320032039E05
:1005DA0000C085F201C086F2D7DE83C204F084C26D
:1005EA0005F0000E066E076ED8DE85C209F086C2D7
:1005FA000AF0000E0B6E0C6E030E086E09C004F0B2
:10060A000AC005F00BC006F00CC007F0085007E05E
:10061A0004360490053606360736FF0FF8D73EDD56
:10062A0000C089F201C08AF202C08BF203C08CF2C8
:10063A000A0E046E000E056E85C200F086C201F035
:10064A0000DD00C085F201C086F2000E015C02E105
:10065A00030E005C01E242D042C2E9FF43C2EAFF54
:10066A0002018C51000808E18B51000805E18A510A
:10067A00000802E1895100082FE24151EF12865326
:10068A000DE0876B886B000E885D02E18651875DFD
:10069A0005E28D6BF1DC874B882BF5D785C28DF28D
:1006AA00EBDC4051EF1686530DE0876B886B000E2A
:1006BA00885D02E18651875D05E28D6BDDDC874B43
:1006CA00882BF5D785C28DF2D7DC010E895F000E23
:0E06DA008A5B8B5B8C5BC4D74051EF1612001D
:1006E8000900F5CFE6FF0006FBE10106F9E112007B
:1006F8000201846B81C2E9FF82C2EAFFEECF83F276
:100708008351000A0EE083C28DF271DE0201842B50
:1007180084518125E96E000E8221EA6EEECF83F2C4
:04072800EFD71200F5
:10072C002D0EF66E0E0EF76E000EF86E6C0EE16E60
:10073C00020EE26E140E006E010E016ECFDF6C0E17
:10074C000201816F020E826FD1DF8482340E0C6E37
:10075C00F10E0D6E0D2EFED70C2EFCD700000000F6
:10076C008492020E0B6E040E0C6EBA0E0D6E0D2ED4
:10077C00FED70C2EFCD70B2EFAD700008480829665
:10078C008490806B070E805D14E2030E006E000EE9
:10079C00016E80C204F0000E056E5EDE2D0E00248C
:1007AC00E96E000E0120EA6EEECF8EF230DC802B6B
:1007BC00E9D78480030E0B6E080E0C6E770E0D6E4F
:0E07CC000D2EFED70C2EFCD70B2EFAD71200E6
:1007DA00F28EF28CF28AF18486DE820E0201816F39
:1007EA000F0E826F020E836F17DEB886B06AAD0EE7
:0A07FA00AF6EAC8481DE8B94120018
:10080400E80E0201816F030E826FFA0E836F000EF1
:08081400846FA1DE8B94120039
:10081C00130E02016C6F140E6D6F020E6E6F210EB3
:10082C006F6F200E706F270E716F0B0E726F070EAD
:10083C00816F6C0E826F020E836F36DE110E6C6F41
:10084C006D6B010E6E6F6F6B620E706F050E816FAC
:10085C006C0E826F020E836F27DE110E6C6F6D6B48
:10086C00010E6E6F030E6F6F400E706F050E816F71
:10087C006C0E826F020E836F17DE080E816F150EE1
:10088C00826F000E836F10DE110E6C6F100E6D6F89
:10089C00090E6E6F6F6B080E706F140E716F726BAA
:1008AC000F0E736F310E746F756B766B776B786B95
:1008BC000D0E816F6C0E826F020E836FF5DD110EC3
:1008CC006C6F110E6D6F050E6E6F6F6B010E706F8E
:1008DC002D0E716FD40E726F736B746B090E816F6A
:1008EC006C0E826F020E836FDFDD110E6C6F120EB9
:1008FC006D6F010E6E6F6F6B810E706F050E816FD9
:10090C006C0E826F020E836FCFDD110E6C6F120EA8
:10091C006D6F010E6E6F060E6F6F020E706F050E0F
:10092C00816F6C0E826F020E836FBEDD110E6C6FC9
:10093C00120E6D6F030E6E6F080E6F6F706B716B16
:10094C00726B070E816F6C0E826F020E836FACDDC3
:10095C00110E6C6F120E6D6F0C0E6E6F0D0E6F6FA5
:10096C00706B0E0E716F040E726FAA0E736F746B38
:10097C00756B766B776B786B796B7A6B7B6B100E18
:10098C00816F6C0E826F020E836F8EDD110E6C6F99
:10099C00120E6D6F080E6E6F190E6F6F706B716BA0
:1009AC00726B736B746B756B766B776B0C0E816FF4
:1009BC006C0E826F020E836F77DD100E816F420E0C
:1009CC00826F000E836F70DD050E816FA20E826F39
:1009DC00000E836F69DD100E816F720E826F000E38
:1009EC00836F62DD100E816FAD0E826F010E836F0F
:1009FC005BDD100E816F720E826F000E836F54DD03
:100A0C00070E816F980E826F010E836F4DDD050E00
:100A1C00816FDD0E826F010E836F46DD100E816FCC
:100A2C00100E826F020E836F3FDD0C0E816FEC0E89
:100A3C00826F010E836F38DD110E6C6F200E6D6F9F
:100A4C00010E6E6F4E0E6F6F400E706F050E816F44
:100A5C006C0E826F020E836F27DD100E816F050EF8
:100A6C00826F010E836F20DD100E816FD50E826FA9
:100A7C00000E836F19DD100E816F350E826F010E23
:100A8C00836F12DD110E6C6F220E6D6F040E6E6F84
:100A9C006F6B080E706F7F0E716F726B3D0E736F04
:100AAC00080E816F6C0E826F020E836FFDDC0B0ED5
:100ABC00816F770E826F010E836FF6DC110E6C6FF7
:100ACC00300E6D6F0C0E6E6F6F6B730E706FFF0EC2
:100ADC00716F400E726F770E736FFF0E746F010E95
:100AEC00756F770E766FFF0E776F020E786F780E3C
:100AFC00796FFF0E7A6F030E7B6F100E816F6C0E89
:100B0C00826F020E836FD0DC060E816F650E826FD2
:100B1C00010E836FC9DC0C0E816FB10E826F000E5B
:060B2C00836FC2DC120021
:100B320021EC07F00F01386B396B3A6B3B6B3C6B66
:100B4200C16AAF0EC06E926A100E936E500E946E12
:100B5200956A966A806A816A826A836A846A3CDEDE
:100B6200520E0B6E2B0E0C6E000E0D6E0D2EFED75E
:100B72000C2EFCD70B2EFAD7000043DE0B0E0B6EA9
:100B8200260E0C6E5D0E0D6E0D2EFED70C2EFCD7B2
:100B92000B2EFAD70000000034DE150EF66E0E0E94
:100BA200F76E000EF86E540EE16E020EE26E180E33
:100BB200006E010E016E97DD540E0201816F020E6E
:100BC200826F99DD060E0B6E130E0C6EAD0E0D6E5E
:100BD2000D2EFED70C2EFCD70B2EFAD700000000EC
:080BE200A4DD1BDEFFD7FFD7E5
:100E420010EE15F02B0E006E030E016EEA0EF66E1A
:0E0E52000B0EF76E000EF86E74EC03F012003B
:100BEA0011000002000004000000000000000000E4
:080BFA000000000000000000F3
:100C0200020000010000000000010000C90000C352
:050C120000008000005D
:100C17001100002000000C0000000000020000008E
:100C270000000700000000002E0000E000000100A7
:100C370000C90000C30000800000000000010000A0
:100C47001100002000000C000018000001000080C7
:100C57000000080000030000800000000000700092
:100C6700002000000C0000E800000300000D000059
:0F0C77001100002000000100000C00005E0000D2
:100C86001100004000000800000000003800000EBF
:100C960000006600006600004400004400002000DA
:040CA60000FE00004C
:100CAA001100002100000C00000C0000FC0000FDF7
:100CBA000000150000FF00000000000F0000FF0008
:100CCA0000BA00000F0000510000CF0000A9000088
:100CDA001100002100000C0000000000FF0000BA13
:100CEA0000000F0000510000CF0000A90000C90059
:100CFA0000FC00001B00001E00000F0000010000A5
:100D0A001100002100000C0000180000C90000FCBE
:100D1A0000001B00001E00000F0000010000FC0084
:100D2A0000FD0000150000FF00000000000F000099
:100D3A001100002000000200005000008400000A98
:020D4A000000A7
:100D4C001100002300000700000000002C00000E22
:100D5C0000000B00000400000C00007300000300F6
:010D6C000086
:100D6D001100002000000300003000001700002AD1
:050D7D000000800000F1
:100D82001100002000000C0000240000000000A759
:100D92000000C60000000000540000020000C20073
:100DA2000000000004000032000080000007000084
:0F0DB200110000200000010000350000E20000E9
:100DC1001100002000000800004500008300000120
:100DD1000000550000020000800000FF0000080034
:040DE100000000000E
:100DE5001100002000000C0000380000110000ABCD
:100DF5000000AB00008000001A0000FF0000FF00AB
:100E0500000000002B00000C0000A40000220000E0
:100E1500535441525420524144494F20534934348C
:080E2500363350524F0A0D0054
:100E2D005374617274205245534554205261646964
:040E3D006F0A0D002B
:020000040030CA
:0D000100321F3CFFBF81FF0FC00FE00F401A
:00000001FF
