:040000008A11112828
:10000800FE00030EF0000408F1000A08F200831253
:1000180003137F08F3008A11742D8A11022F1330FD
:1000280083120313D7005708D8001430D700570895
:10003800D9000230D7005708DA002130D700570816
:10004800DB002030D7005708DC002730D7005708DE
:10005800DD000B30D7005708DE005830D2000030E2
:10006800D30007308A113C258A11113083120313FB
:10007800D7005708D800D901DA010314DA0DDB01DB
:100088006230D7005708DC005830D2000030D30067
:1000980005308A113C258A11113083120313D700C9
:1000A8005708D800D901DA010314DA0D0330D70054
:1000B8005708DB004030D7005708DC005830D20022
:1000C8000030D30005308A113C258A11A9308312EB
:1000D8000313D2008030D30008308A113C258A11DE
:1000E800113083120313D7005708D8001030D700F7
:1000F8005708D9000930D7005708DA00DB01083063
:10010800D7005708DC001430D7005708DD00DE019F
:100118000F30D7005708DF003130D7005708E0000C
:10012800E101E201E301E4015830D2000030D300DC
:100138000D308A113C258A11113083120313D70020
:100148005708D8001130D7005708D9000530D70014
:100158005708DA00DB01DC010314DC0D2D30D70071
:100168005708DD00D430D7005708DE00DF01E00172
:100178005830D2000030D30009308A113C258A114A
:10018800113083120313D7005708D8001230D70054
:100198005708D900DA010314DA0DDB018130D700E2
:1001A8005708DC005830D2000030D30005308A11DF
:1001B8003C258A11113083120313D7005708D80041
:1001C8001230D7005708D900DA010314DA0D0630C7
:1001D800D7005708DB000230D7005708DC0058303A
:1001E800D2000030D30005308A113C258A11113025
:1001F80083120313D7005708D8001230D7005708C6
:10020800D9000330D7005708DA000830D70057085C
:10021800DB00DC01DD01DE015830D2000030D30004
:1002280007308A113C258A11113083120313D70035
:100238005708D8001230D7005708D9000C30D7001B
:100248005708DA000D30D7005708DB00DC010E3004
:10025800D7005708DD000430D7005708DE00AA3061
:10026800D7005708DF00E001E101E201E301E40102
:10027800E501E601E7015830D2000030D300103024
:100288008A113C258A11113083120313D7005708AD
:10029800D8001230D7005708D9000830D7005708BF
:1002A800DA001930D7005708DB00DC01DD01DE0178
:1002B800DF01E001E101E201E3015830D200003042
:1002C800D3000C308A113C258A116630831203133F
:1002D800D2008030D30010308A113C258A11C330F7
:1002E80083120313D2008030D30005308A113C25D5
:1002F8008A11763083120313D2008030D300103075
:100308008A113C258A11263083120313D2008030CB
:10031800D30010308A113C258A11763083120313DA
:10032800D2008030D30010308A113C258A11B130B8
:1003380083120313D2008030D30007308A113C2582
:100348008A11BE3083120313D2008030D3000530E7
:100358008A113C258A11163083120313D20080308B
:10036800D30010308A113C258A119230831203136E
:10037800D2008030D3000C308A113C258A1111300C
:1003880083120313D7005708D8002030D700570826
:10039800D900DA010314DA0D4E30D7005708DB0014
:1003A8004030D7005708DC005830D2000030D30066
:1003B80005308A113C258A11363083120313D20086
:1003C8008030D30010308A113C258A1146308312C0
:1003D8000313D2008030D30010308A113C258A11D3
:1003E800563083120313D2008030D30010308A11A4
:1003F8003C258A11113083120313D7005708D800FF
:100408002230D7005708D9000430D7005708DA003F
:10041800DB010830D7005708DC007F30D7005708C9
:10042800DD00DE013D30D7005708DF005830D2002C
:100438000030D30008308A113C258A119E3083127F
:100448000313D2008030D3000B308A113C258A1167
:10045800113083120313D7005708D8003030D70063
:100468005708D9000C30D7005708DA00DB01733081
:10047800D7005708DC00FF30D7005708DD004030B0
:10048800D7005708DE007730D7005708DF00FF3065
:10049800D7005708E000E1010314E10D7730D700D9
:1004A8005708E200FF30D7005708E3000230D700B2
:1004B8005708E4007830D7005708E500FF30D70028
:1004C8005708E6000330D7005708E7005830D20035
:1004D8000030D30010308A113C258A11B8308312BD
:1004E8000313D2008030D30006308A113C258A11CC
:1004F800863083120313D2008030D3000C308A1167
:060508003C258A110800E9
:10060000FF1B0A2B83137F1883170008840A031922
:10061000FF0A080003308A000408840A82070034B5
:100620007334773477347834413442344334443447
:10063000453446344734483449346D340234013447
:1006400000340134C934C3348034113420340C34C0
:1006500038341134AB34AB3480341A34FF34FF34C3
:1006600000342B340C34A4342234113420340C34B0
:1006700024340034A734C634003454340234C23431
:1006800000340434323480340734113421340C34CF
:100690000034FF34BA340F345134CF34A934C93460
:1006A000FC341B341E340F340134113421340C3427
:1006B0000C34FC34FD341534FF3400340F34FF3473
:1006C000BA340F345134CF34A934113421340C34BA
:1006D0001834C934FC341B341E340F340134FC3458
:1006E000FD341534FF3400340F34113420340C340D
:1006F000003402340034073400342E34E034013442
:10070000C934C334803400340134113420340C34FF
:1007100018340134803408340334803400347034A5
:1007200020340C34E83403340D34113440340834AC
:10073000003438340E34663466344434443420345F
:10074000FE341134203408344534833401345534B4
:1007500002348034FF340834003411342334073435
:1007600000342C340E340B3404340C34733403341E
:1007700011340234043400340034003400340034C2
:10078000113420340334303417342A348034113493
:1007900020340234503484340A3411342034013487
:1007A0003534E2341134203401340C345E3470308A
:1007B000831603138F0097013230F6000030F700E4
:1007C0008A1187268A118A11D9268A118A11F72659
:1007D0008A1183120313871307138A11E9268A11DA
:1007E00000008A11BE248A118A1113208A118A11ED
:1007F000C9268A1183120313CD01CE015110C030D6
:100800008B00022C83120313D118072C082C022C06
:1008100007180B2C0C2C022C8A114F268A118312DC
:100820000313BD19142C152C5B2C8A11FE248A117C
:100830008A11B6268A1183120313ED010430EC00ED
:100840006C08EE000D306E02031C272C282C2A2C7D
:100850003D2C3D2C6E08203E840083130008EC00E4
:100860006C08ED070130EC006C08EE070D306E02ED
:10087000031C3B2C3C2C2A2C3D2C2D086D06031D03
:10088000422C432C562C2408413A031D482C492C59
:10089000562C403087066430F4000030F5008A1191
:1008A000DE258A118A11C9268A11022C8A11C926CD
:1008B0008A11022C022C8A11C9268A11022C022CC0
:1008C000022C022C022C8A11112883120313D90046
:1008D0005708D8005808DA00DB01772C8A11A026C7
:1008E0008A1183120313D8005808DB00772C5B08A9
:1008F000FF3A031D7C2C7D2C6E2C7E2C5A30D200AE
:100900000030D30001308A113C258A118312031371
:10091000DB01932C8A11A0268A1183120313D800BD
:100920005808DB00932C5B08FF3A031D982C992C88
:100930008A2C07158713071144308A11AB258A11B9
:1009400083120313DB01B62CFF308A11AB258A1109
:1009500083120313D8005B08393E840058088313C0
:1009600080000130D8005808DB07B62C59085B021C
:10097000031CBB2CBC2CA42C0715080083120313EA
:1009800087160230F4000030F5008A11DE258A1146
:100990008312031387120A30F4000030F5008A1125
:1009A000DE258A1183120313071587130711F90136
:1009B00007307902031CDD2CDE2CE02CF32CF32C09
:1009C00079080F3E84008A110A238A118A11AB2507
:1009D0008A110130F8007808F90707307902031C02
:1009E000F22CF32CE02C8312031307151430F400BF
:1009F0000030F5008A11DE258A11080083120313E6
:100A0000D2010B2D8A11A0268A11F90079088312D0
:100A10000313D2000B2D5208FF3A031D102D112D88
:100A2000022D07158713071177308A11AB258A111C
:100A300083120313D2010E305202031C202D212DEC
:100A4000232D3A2D3A2DFF308A11AB258A11F9005A
:100A5000831203135208203E840079088313800018
:100A60000130F9007908D2070E305202031C392DEB
:100A70003A2D232D0715080083120313D400D60145
:100A80004A2D8A11A0268A11F900790883120313CE
:100A9000D6004A2D5608FF3A031D4F2D502D412DEB
:100AA00087130711D6016C2D56085207840053088E
:100AB0000318530AFF008A1100238A11F9007908EC
:100AC000D50055088A11AB258A110130F900790843
:100AD00083120313D6076C2D54085602031C712D84
:100AE000722D542D071508000C1C772D782DA02D84
:100AF00078308E00EC308F000130CF070318D00A19
:100B00000030D00714304F065004031D882D892D66
:100B10008D2DCF01D00151158D2D0130CD0703183A
:100B2000CE0A0030CE073C304D064E04031D992DF1
:100B30009A2D9E2DCD01CE0151149E2D0C10A02D6D
:100B40007308FF0072088A0071088400700E830029
:100B5000FE0E7E0E0900F600F50108307502031C3A
:100B6000B22DB32DB52DDB2DDB2DF61FB82DB92DF4
:100B7000BD2D831203138715C12D83120313871113
:100B8000C12D0310F60D8717871CC72DC82DCA2D40
:100B90007614CF2DFE30F4007408F605CF2D8713A0
:100BA0000130F4007408F50708307502031CD92DD4
:100BB000DA2DB52DDB2D7608DD2D0800012E7C30D9
:100BC000F6000130F70077087604031DE82DE92DC3
:100BD000EB2DFA2DFA2D000000000130F602003056
:100BE000031CF703F70277087604031DF82DF92D8F
:100BF000EB2DFA2D0130F4020030031CF503F50251
:100C0000012E75087404031D062E072EDF2D082EF5
:100C10000800F401F5017508803AFF0089307F0271
:100C2000031D142EA8307402031C172E182E1A2E22
:100C30002D2E2D2E0130F4070318F50A0030F5078C
:100C40007508803AFF0089307F02031D292EA830E5
:100C50007402031C2C2E2D2E1A2E64000800113055
:100C600083120313D7005708D800D9010314D90DF4
:100C70000330D7005708DA00DB010330D7005708EC
:100C8000DC001830D7005708DD00DE015830D200F4
:100C90000030D30007308A113C258A11080020302B
:100CA00083120313DC005C08DD00DE01DF01E001DC
:100CB0005D30D2000030D30004308A113C258A1107
:100CC000203083120313DC005C08D70009308A113E
:100CD00065248A110800323083120313D7005708A5
:100CE000D800D901DA01DB01DC01DD010830D700D1
:100CF0005708DE000830D7005708DF005830D20010
:100D00000030D30008308A113C258A110800F80110
:100D1000F901942E8A1109268A110130F807031867
:100D2000F90A0030F907942E77087902031D9A2EEC
:100D300076087802031C9D2E9E2E8A2E9F2E080078
:100D40008312031307158713071144308A11AB254B
:100D50008A1100308A11AB258A11F7007708F80054
:100D60008312031307157808B52E08001530831277
:100D70000313D7005708D8000330D7005708D9000D
:100D80005830D2000030D30002308A113C258A113D
:100D9000080083120313D1108A11B6268A118A1112
:100DA0002F268A118A114F268A118A116B268A11E1
:100DB0000800831203179E019F0117308316031347
:100DC000950096018501093087008312031387017E
:100DD00008003130831203139000831603130C14A0
:100DE0007830831203138E00EC308F00080000006F
:100DF00000000000000000000000000000000000F3
:100E00000000080083132030840052308A110C2720
:100E10008A1183018A11D72B64008001840A040699
:080E20000319003404060D2F34
:00000001FF
