:020000040800F2
:10000000FCFF00203D1B0000351B0000351B0000DD
:10001000351B0000351B0000351B0000351B0000A0
:10002000351B0000351B0000351B0000351B000090
:10003000351B0000351B0000351B0000351B000080
:10004000351B0000351B0000351B0000351B000070
:10005000351B0000351B0000351B0000351B000060
:10006000351B0000351B0000351B0000351B000050
:10007000351B0000351B0000351B0000351B000040
:10008000351B0000351B0000351B0000351B000030
:10009000351B0000351B0000351B0000351B000020
:1000A000351B0000351B0000351B0000351B000010
:1000B000351B0000351B0000351B0000351B000000
:1000C000351B0000351B0000351B0000351B0000F0
:1000D000351B0000351B0000351B0000351B0000E0
:1000E000351B0000351B0000351B0000351B0000D0
:1000F000351B0000351B0000351B0000351B0000C0
:10010000351B0000351B0000351B0000351B0000AF
:10011000351B0000351B0000351B0000351B00009F
:10012000351B0000351B0000351B0000351B00008F
:10013000351B0000351B0000351B0000351B00007F
:10014000351B0000351B0000351B0000351B00006F
:1001500081B0CDF800E081B2034800F023FCDDF867
:1001600000E001B0704700BF0038004081B0CDF81A
:1001700000E081B2034800F015FCDDF800E001B0BA
:10018000704700BF003C004001480068704700BF56
:100190005800002081B0CDF800E081B2034800F0A3
:1001A00001FCDDF800E001B0704700BF0030014005
:1001B00081B0194900EA0101084600220EE004203E
:1001C00022E0082020E010201EE020201CE040203B
:1001D0001AE0802018E040F2001015E00F49884234
:1001E000EDD00F498842ECD00E498842EBD00E4941
:1001F0008842EAD00D498842E9D00D498842E8D0CA
:100200000C498842E7D010460B49096841EA0002D0
:1002100009490A6001B0704700FCFFFF0008014077
:10022000000C014000100140001401400018014082
:10023000001C0140002001401810024083B0CDF89E
:1002400000E0ADF808100190BDF80830BDF80820B6
:10025000521EADF808204BB10020064C2468A04780
:10026000019A1070019A521C0192EDE7DDF800E04E
:1002700003B070474C00002083B0CDF800E000F0E0
:10028000FF031A09104603F00F02134614E0184A40
:1002900002921FE0174A02921CE0174A029219E0EC
:1002A000164A029216E0164A029213E0154A02928A
:1002B00010E0154A02920DE00028E8D00128E9D0AC
:1002C0000228EAD00328EBD00428ECD00528EDD092
:1002D0000628EED001229A40ADF8042002980A4682
:1002E000BDF8041000F064FADDF800E003B07047D8
:1002F00000080140000C01400010014000140140C2
:1003000000180140001C01400020014002040608C2
:1003100042F6DF67C0F200077F1EFDD100BF00BFBD
:1003200000BF00BF00BF704782B0CDF800E00346B9
:10033000191D0191FFF728FF40F2E83100FB01F29F
:1003400001990A601F490978C1F30311C8B21E4917
:1003500009180878C0B2191D096881401960194947
:100360000988C1F3022188B2174909180878C0B278
:1003700003F20802191D0968C1401160114909887A
:10038000C1F3C22188B2104909180878C0B203F23B
:100390000C02191D0968C14011600A490988C1F39E
:1003A000813188B2094909180978C8B203F21002EC
:1003B00003F20C010968B1FBF0F11160DDF800E017
:1003C00002B07047041002405A1F00000C030000E6
:1003D00081B0CDF800E0012252B23E490A6000F23D
:1003E00068010B686FF0006103EA0102144603F034
:1003F0000061C90E0B4602F00041B1F1004F02D17D
:1004000035490A6801E035490A6804F47021090C8D
:100410000E464FF6FF7104EA01010D4604F4401147
:10042000B1F5401F0DD16FF0706102EA01010E4677
:100430002A490A686FF070610A4028490A6032460A
:1004400016E004F48011B1F5801F09D14FF00301CB
:10045000B140C94302EA010141F070610A4607E078
:10046000610D090105FA01F1C9430A4042F07062C9
:100470002BB1610D090105FA01F10A43FFE704F010
:100480000041B1F1004F02D113490A6001E0134964
:100490000A6040F2000A81464FEA8A0109EB010135
:1004A0000968B1F1FF3F10D009F134014FEA8A0326
:1004B000C91809680A4609EB03010968084611468C
:1004C000FFF7DAFE0AF1010AE6E7DDF800E001B025
:1004D000704700BF000342421C000140040001407D
:1004E00081B000230360CB009BB242EA030304689F
:1004F0009BB244EA03030360051D13141C462B68DA
:1005000064F382032B6000F21C0500242B6864F363
:10051000CB232B600124036864F38613036001B0CE
:100520007047FFFF82B0CDF800E000200E4C246839
:10053000A047FFF7EDFE01A80221FFF77FFEFFF7BE
:10054000E7FE0120084C2468A047FFF7E1FE01AA5E
:100550001078010289B2501C007841EA0000DDF8F1
:1005600000E002B0704700BF4800002089B0CDF81D
:1005700000E0834698B28C46BDF824100A9E04AC75
:10058000ADF80410ADF808002046FFF7CDFEBDF829
:100590000800BDF80410644CA34512D101256DB2CA
:1005A000624C2560624D634C2560634D634C256051
:1005B000634D644C2560644D644C2560079C039436
:1005C00056E0634CA34512D101256DB2614C256004
:1005D000614D584C2560614D584C2560604D594C1B
:1005E0002560604D594C2560069C039440E05E4CAC
:1005F000A34512D101256DB25C4C25605C4D4D4C7C
:1006000025605C4D4D4C25605B4D4E4C25605B4D2F
:100610004E4C2560069C03942AE0594CA34512D108
:1006200001256DB2574C2560574D424C2560574D02
:10063000424C2560564D434C2560564D434C256039
:10064000069C039414E0544CA34511D101256DB2CE
:10065000524C2560524D374C2560524D374C256029
:10066000514D384C2560514D384C2560069C039403
:10067000ADF80410ADF808003046FFF7A9FEBDF84C
:100680000800BDF804100BF1100500242C600BF1DC
:1006900010052C680C432C600BF10C0500242C6019
:1006A00018B140F4806080B2FFE70BF10C052C68B4
:1006B00004432C600BF10C060125346865F34D34BE
:1006C00034600BF10C060125346865F3C304346013
:1006D0000BF10C060125346865F3820434600BF1DC
:1006E000140500242C60039D192465434FEA8C04F3
:1006F000B5FBF4F76424B7FBF4F426013509642450
:100700006C433C1B240104F232056424B5FBF4F471
:1007100004F00F0446EA04040BF10805A4B22C60AF
:10072000DDF800E009B0704700380140380342426C
:100730009D0A000064000020FFFFFFFF680000200A
:10074000FFFFFFFF6C000020FFFFFFFF7000002095
:1007500000440040C4034242D50A0000FFFFFFFFEF
:10076000FFFFFFFFFFFFFFFF00480040C8034242BA
:10077000050A0000FFFFFFFFFFFFFFFFFFFFFFFF76
:10078000004C0040CC034242650A0000FFFFFFFF1F
:10079000FFFFFFFFFFFFFFFF00500040D00342427A
:1007A000490A0000FFFFFFFFFFFFFFFFFFFFFFFF02
:1007B00081B0CDF800E08CB21546774B00EA030318
:1007C0001E461846FFF7F4FCB4F1FF0F0CD1734B33
:1007D0009D4203D14FF033333360D9E0422D03D132
:1007E0004FF044333360D3E04FF6FF739C4214D193
:1007F0006A4B9D4207D14FF033333360341D4FF0C5
:1008000033332360C4E0422D07D14FF044333360CB
:10081000341D4FF044332360BAE00021002005F07E
:1008200001030BB100211DE005F0020333B105F413
:10083000C0730BB1082100E0042113E005F00403AC
:1008400033B105F020030BB1042100E0002109E0E1
:1008500005F0080333B105F020030BB10C2100E0D3
:100860000821FFE74E4B05EA03030BB1032009E023
:1008700005F400730BB1022004E005F480630BB1B2
:100880000120FFE705F00C030BB10143FFE704F083
:10089000FF039BB2002B3BD0376800201FFA84F87F
:1008A00032462E4608282CD24FF0010303FA00F4FA
:1008B00008EA0403A34222D185004FF00F03AB40A6
:1008C000DB4307EA030401FA05F344EA03031D4688
:1008D00006F48173B3F5817F05D102F214044FF061
:1008E00001038340236006F08203822B05D102F2CC
:1008F00010044FF00103834023602F46FFE7401CA4
:10090000D0E717601FFA88F00F463146164602E01E
:100910000F462946A0B2B0F1FF0F39D9331DD3F8E5
:1009200000800022082A30D202F208044FF00103AE
:1009300003FA04F400EA0403A34224D195004FF023
:100940000F03AB40DB4308EA030807FA05F348EA64
:10095000030801F48173B3F5817F07D106F2140512
:1009600002F208044FF00103A3402B6001F0820360
:10097000822B07D106F2100502F208044FF00103A2
:10098000A3402B60FFE7521CCCE7331DC3F8008067
:10099000DDF800E001B0704700FCFFFF1400080024
:1009A0000008080081B000F20C02116000F2080299
:1009B0001368C3F3000202B9F8E700F20C021268F0
:1009C00090B201B07047FFFF81B0ADF80010014652
:1009D000BDF800000B68C3F3C01202B9FAE70A1DA4
:1009E000106001B07047FFFF81B0CDF800E081B228
:1009F0000348FFF7D7FFDDF800E001B0704700BF04
:100A00000030014081B0CDF800E081B20348FFF72B
:100A1000DBFFDDF800E001B0704700BF0048004098
:100A200081B0CDF800E0019D2C4610B408B493B21B
:100A30008AB201460348FFF799FD02B0DDF800E0F5
:100A400001B070470038014081B0CDF800E081B2BC
:100A50000348FFF7B9FFDDF800E001B0704700BFC1
:100A60000050004081B0CDF800E081B20348FFF7AC
:100A7000ABFFDDF800E001B0704700BF004C004064
:100A800081B0CDF800E081B20348FFF78BFFDDF8BD
:100A900000E001B0704700BF003C004081B0CDF8DD
:100AA00000E081B20348FFF78FFFDDF800E001B0FE
:100AB000704700BF0038014081B0CDF800E081B23E
:100AC0000348FFF76FFFDDF800E001B0704700BF9B
:100AD0000038004081B0CDF800E081B20348FFF754
:100AE00073FFDDF800E001B0704700BF0044004034
:100AF00081B0CDF800E0019D2C4610B408B493B24B
:100B00008AB201460348FFF731FD02B0DDF800E08C
:100B100001B070470044004081B0CDF800E0044AC5
:100B200089B2FFF745FEDDF800E001B0704700BF75
:100B30001400080081B0FAB590EA02064CBF4FF0ED
:100B400000464FF00006010243001B0E12BF41F0A9
:100B500000414FF000003BE0FF2B35D05FEA02245C
:100B60005FEA42055FEA156511BF44F000444FF0AB
:100B7000FF4030432CE0FF2D26D05B1B00202027B8
:100B800064084908A14240EB000028BF091B7F1EF2
:100B900004D0002918BF4900F4D1B84010F0004F2C
:100BA00004BF4000B3F1010380302CBF5B1C400048
:100BB0007F33DCBF4FF000000AE0FF2B04D2400A75
:100BC00040EAC350304303E0FF27FF0556EA070021
:100BD000BDE8FA4001B0704781B0CDF800E04FF0B9
:100BE000420289B2FFF7E4FDDDF800E001B0704792
:100BF00081B0FAB590EA02064CBF4FF000464FF0C4
:100C000000064FEA00214FEA40031B0E12BF41F0DD
:100C100000414FF000002CE0FF2B26D04FEA0224C9
:100C20004FEA42052D0E12BF44F000444FF0000081
:100C30001FE0FF2D19D05B19A1FB0454002C5CBFF1
:100C400064005B1E803424BF5B1C64087E3BDCBFF9
:100C50004FF000000DE0FF2B07D24FEA142030F4D4
:100C6000000040EAC350304303E0FF27FF0546EA97
:100C70000700BDE8FA4001B07047FFFF81B00028CF
:100C800008BF0FE002B54FF09E0202D4521E400092
:100C9000FCD580302CBF521C4000400A40EAC250B4
:100CA000BDE8024001B0704781B0CDF800E0019D81
:100CB0002C4610B408B493B28AB201460348FFF739
:100CC00055FC02B0DDF800E001B07047004800407C
:100CD00081B0CDF800E0FFF725FC41F6FE71084039
:100CE00080B24008DDF800E001B0704783B0CDF875
:100CF00000E08DF8040002910B4C0C4B1C600C4C76
:100D00000C4B1C60012464B20B4B1C601046FFF7B7
:100D10005FFB029A9DF804100848FFF7E1FBDDF83D
:100D200000E003B0704700BF6D0100005C000020D0
:100D3000810A000060000020BC034242003C0040E9
:100D400001490860704700BF9C8121420149086049
:100D5000704700BF9481224201490860704700BF7C
:100D60009881214201490860704700BF9881224262
:100D700001490860704700BFB00122420149086084
:100D8000704700BFB081224201490860704700BF30
:100D9000AC81224281B00091014600980B461C466E
:100DA0005A1C15460346421C10461A7822702278B7
:100DB0000AB12B46F3E7084601B0704781B010B581
:100DC000904208BF2AE040EA02044FEA4404002CA3
:100DD00008BF23E0440004D1944201D4A41C012C98
:100DE0001CE04FEA40044FEA1464FF2C0AD14FEA9A
:100DF00042044FEA1464FF2C04D14FEAD274B4EBDE
:100E0000D0340BE0002A06D4002802DC0024012C98
:100E100004E0904202E0002848BF8242BDE8104052
:100E200001B0704781B02DE9FA414FEA02244FEA40
:100E300042052D0E04D1002C18BF4FF000006CE0CD
:100E400044F00044FF2D5FD04FEA9404002A48BFCD
:100E500064424FEA00214FEA40031B0E05D10029EE
:100E600014BF4FF00000104657E041F00041FF2B47
:100E70004BD04FEA9101002848BF49425E1B41BF59
:100E80000F4621463C46764248BF2B46192E47BFA7
:100E900044FA06F7C9194FF0000803E0C6F11C0731
:100EA00004FA07F8002904BF4FF0000035E046BF00
:100EB00049424FF001074FF00007A3F10103490039
:100EC000FBD511F080040DD001F0200548EA05089B
:100ED000803128BF5B1C01F0400458EA040808BFB9
:100EE00021F480719B1CDCBF4FF0000015E0FF2B4C
:100EF0000DD221F0FF014FEA41014FEA512040EAB3
:100F0000C35040EAC77008E010464FEAD0774FEA76
:100F1000C777FF204FEAC0503843BDE8FA4101B01F
:100F20007047FFFF81B0CDF800E0FFF7D1FEFFF77B
:100F3000A5FE064AFFF75CFE4FF08B42FFF7FAFD75
:100F40000046DDF800E001B0704700BF000020401F
:100F500081B0026803490A60011D0A6802490A60FB
:100F600001B07047500000204C00002081B000F21A
:100F700030010A6804490A6000F208010A6803495E
:100F80000A6001B0704700BF5400002048000020F4
:100F900081B0CDF800E00178CCB2A0B2034C246857
:100FA000A0470020DDF800E001B0704744000020B9
:100FB00001490860704700BF88012242014908606A
:100FC000704700BF9001214281B0CDF800E009498F
:100FD00002B440F2000340F2000240F20001FFF7C9
:100FE00087FD01B0044A05490A600020DDF800E0F1
:100FF00001B070478C1D0000D50A0000440000209D
:1010000001490860704700BFAC01224201490860F5
:10101000704700BFA801224201490860704700BF25
:10102000B481224281B0CDF800E0094902B440F217
:10103000000340F2000240F20001FFF7F1FC01B0B2
:10104000044A05490A600020DDF800E001B070475D
:10105000201D00009D0A00004400002081B0CDF852
:1010600000E0011D0A680168C8B21146034AFFF793
:101070003DFE0020DDF800E001B07047F81D0000E3
:1010800081B0CDF800E0A9E0012905D140F22001AE
:101090006548FFF7A1FD04E040F220016248FFF738
:1010A0003BFDBBE0012905D140F208015F48FFF795
:1010B00093FD04E040F208015C48FFF72DFDADE030
:1010C000012905D144F200015948FFF785FD04E0EC
:1010D00044F200015648FFF71FFD9FE0012905D1AA
:1010E00040F200415148FFF777FD04E040F2004133
:1010F0004E48FFF711FD91E0012905D140F60001AE
:101100004A48FFF769FD04E040F600014748FFF751
:1011100003FD83E0012905D141F200014348FFF7B7
:101120005BFD04E041F200014048FFF7F5FC75E08B
:10113000012905D141F200013D48FFF74DFD04E0D2
:1011400041F200013A48FFF7E7FC67E0012905D1C9
:1011500040F600013648FFF73FFD04E040F600018D
:101160003348FFF7D9FC59E0012905D140F240018D
:101170002F48FFF731FD04E040F240012C48FFF713
:10118000CBFC4BE0012905D140F220012848FFF7B4
:1011900023FD04E040F220012548FFF7BDFC3DE0BF
:1011A000012905D140F240012248FFF715FD04E076
:1011B00040F240011F48FFF7AFFC2FE0012905D1A5
:1011C00040F280011B48FFF707FD04E040F2800178
:1011D0001848FFF7A1FC21E0012020E000283FF49F
:1011E00053AF01283FF45EAF02283FF469AF0328F4
:1011F0003FF474AF04283FF47FAF05283FF48AAF73
:1012000006283FF495AF0728A0D00828ACD00928BD
:10121000B8D00A28C4D00B28D0D0DDE70020DDF8F4
:1012200000E001B0704700BF00080140001001401D
:1012300000140140000C014081B0CDF800E0A9E0AD
:10124000012905D140F210016548FFF7C5FC04E013
:1012500040F210016248FFF75FFCBBE0012905D1B5
:1012600040F204015F48FFF7B7FC04E040F20401DC
:101270005C48FFF751FCADE0012905D142F20001C5
:101280005948FFF7A9FC04E042F200015648FFF775
:1012900043FC9FE0012905D140F200415148FFF78E
:1012A0009BFC04E040F200414E48FFF735FC91E022
:1012B000012905D140F600014A48FFF78DFC04E002
:1012C00040F600014748FFF727FC83E0012905D1DC
:1012D00041F200014348FFF77FFC04E041F20001C6
:1012E0004048FFF719FC75E0012905D140F20101E2
:1012F0003B48FFF771FC04E040F201013848FFF77A
:101300000BFC67E0012905D140F200413648FFF7A8
:1013100063FC04E040F200413348FFF7FDFB59E075
:10132000012905D140F200212F48FFF755FC04E0C8
:1013300040F200212C48FFF7EFFB4BE0012905D1DB
:1013400040F200112848FFF747FC04E040F200118A
:101350002548FFF7E1FB3DE0012905D140F24001BE
:101360002248FFF739FC04E040F240011F48FFF734
:10137000D3FB2FE0012905D140F280011B48FFF784
:101380002BFC04E040F280011848FFF7C5FB21E088
:10139000012020E000283FF453AF01283FF45EAF66
:1013A00002283FF469AF03283FF474AF04283FF4E8
:1013B0007FAF05283FF48AAF06283FF495AF072892
:1013C000A0D00828ACD00928B8D00A28C4D00B284F
:1013D000D0D0DDE70020DDF800E001B0704700BFAD
:1013E000000801400010014000140140000C0140C1
:1013F00081B0CDF800E0094902B440F2000340F2A8
:10140000000240F20001FFF773FB01B0044A0549F6
:101410000A600020DDF800E001B070478C1D00007C
:10142000D50A00004400002081B0CDF800E0094951
:1014300002B440F2000340F2000240F20001FFF764
:1014400033FC01B0044A05490A600020DDF800E0E1
:1014500001B07047B41C0000050A000044000020E1
:1014600081B0CDF800E0011D0A680168C8B21146DC
:10147000034AFFF73BFC0020DDF800E001B07047B5
:10148000F81D000001490860704700BF9401214227
:1014900001490860704700BF9C81214201490860F2
:1014A000704700BF9881214201490860704700BF22
:1014B0008C01224201490860704700BFAC01224202
:1014C00001490860704700BFA80122420149086035
:1014D000704700BFB881224201490860704700BFD1
:1014E000A081224201490860704700BFA8812242C2
:1014F00001490860704700BFA48122420149086089
:10150000704700BFB001224201490860704700BF28
:101510008001214283B0CDF800E0029101460191A3
:10152000FFF700FD019903464FF08042FFF746FCAC
:1015300040F2000000DD012040B14FF080400A463B
:10154000FFF7F8FA029AFFF76DFC1BE04FF07C50B2
:101550001A46FFF733FC40F2000000DD012040B1E5
:101560004FF07C500A46FFF7E5FA029AFFF75AFC63
:1015700008E018460A46FFF7DDFA029AFFF752FC28
:1015800001460846DDF800E003B0704781B0CDF8B1
:1015900000E08B4609E05846FFF760FD0AE0584638
:1015A000FFF75EFF06E0012004E00028F3D00128E9
:1015B000F5D0F8E7DDF800E001B0704781B0CDF874
:1015C00000E05FFA81F95FFA82FA0FE05FFA8AF1D0
:1015D0005FFA89F0FFF730FE0DE05FFA8AF15FFAFB
:1015E00089F0FFF74DFD06E0012004E00028EDD072
:1015F0000128F2D0F8E7DDF800E001B07047FFFF06
:1016000082B0CDF800E002460C460020002149B22D
:101610000192019AB2F1FF3F06D1714A114620466C
:10162000FFF7B8FB0320D7E0012501AAD21C1278EE
:1016300002F08002D2B272B101AAD31C1A7882F0F1
:1016400080021A706A1CD3B22D222270621C1446CA
:10165000DEB2A24601E0A246EEB2019A32B9614A78
:1016600011465046FFF796FB0020B5E0019AB2F113
:10167000FF4F06D15C4A11465046FFF78BFBF0B294
:10168000AAE05FFA80F94FFA81F8019A4FF07E5094
:10169000FFF794FB40F2000000DD012048B1019A01
:1016A0005248FFF7A5FA0190A8F101084FFA88F80F
:1016B000EBE7019A4D48FFF781FB40F2000000DCA8
:1016C000012048B1019A4A48FFF792FA019008F1C7
:1016D00001084FFA88F8ECE7019A5200019201AA3A
:1016E000D21C12787F3AD0B201AAD31C01221A7000
:1016F000019A8240019201AAD21C127830328AF8F3
:1017000000200AF10100B8F1010F06DBB8F1060F65
:1017100003DC05465FFA89F103E02E220270451CC6
:10172000012106204FFA88F400B301AAD31C00223D
:101730001A70019A9300019AD2180192019A5200EC
:10174000019201AAD21C127830322A706D1C51B954
:10175000621E52B253B222B92E222A706D1C012190
:10176000FFE75CB2FFE7401EC0B2DDE7294660B28A
:101770004A1E1278302A01D1491EF9E74A1E127812
:101780002E2A01D1491EFFE710B365220A70491CB9
:10179000002806DA2D220A70491C424250B243B298
:1017A00000E043B2D8B2DAB2092A07D90A22B0FB64
:1017B000F2F2D2B230320A70491CFFE70A23B0FBC2
:1017C000F3F203FB1202D2B230320A70481C00E07E
:1017D0000846002202700020DDF800E002B07047E9
:1017E000000000200400002006000020000020412E
:1017F000CDCCCC3D81B0CDF800E011E00846FFF73C
:1018000013FE16E00846FFF7F3FD12E00846FFF767
:1018100009FC0EE00846FFF7D7FB0AE0012008E0CC
:101820000028EBD00128EDD02028EFD03028F1D0CF
:10183000F4E7DDF800E001B07047FFFF81B0CDF8BC
:1018400000E003460846FFF783FB1846FFF78EFBD0
:101850000120034C2468A047DDF800E001B0704788
:101860004800002083B0CDF800E0024610460D226B
:101870008DF808200A228DF809201FE0FFF788FB69
:1018800023E002782AB10190FFF782FB0198401C07
:10189000F7E71AE002782AB10190FFF779FB019887
:1018A000401CF7E702AA1046FFF772FB0DF1090290
:1018B0001046FFF76DFB08E0062007E00029DDD0A9
:1018C0000129DED00229E5D0F6E70020DDF800E0AE
:1018D00003B0704781B01CF8019B0BF8019BBBEB78
:1018E0000A0FF8D101B0704781B01548006840F088
:1018F0000101134801601349134801601048016851
:10190000124801400E4801600D4801686FF48020C4
:1019100001400B4801600C4801686FF4FE00014073
:1019200009480160064801686FF0A0500140044872
:1019300001604FF000010648016001B0704700BF30
:10194000001002400000FFF004100240FFFFF6FE0E
:101950002C10024081B04FF000094FF0000CBDEB9D
:101960000A0F04DCBDEB0B0F01DBD446EA464BF853
:10197000049BBBEB0A0FFAD1BCEB0A0F05DDE24674
:10198000D9F800B00BF1040BF1E701B07047FFFF8D
:101990009BB0CDF800E01C491C48FFF74FFF44F610
:1019A0007F77C0F2120700BF00BF7F1EFDD100BFCE
:1019B00000BF00BF0DF1040B0BF1220ADFF850C08D
:1019C000FFF788FF01A80221FFF74CFF0DF1260B5E
:1019D0000BF1220ADFF83CC0FFF77CFF0DF1260077
:1019E0000221FFF73FFF0DF1480B0BF1220ADFF850
:1019F00028C0FFF76FFF12A80221FFF733FFDDF8C1
:101A000000E01BB0704700BF7C1F0000CC1E000030
:101A1000641E0000861E0000A81E0000FFFFFFFFDE
:101A20008DB0CDF800E024492448FFF773FD244928
:101A300008600DF1040B0BF1120ADFF888C0FFF704
:101A400049FF01A80121FFF70DFF1D4800681E494D
:101A5000FFF7D6FD01211C48FFF704FF64208DF835
:101A6000160042208DF817006D208DF81800002018
:101A70008DF819000DF116000221FFF7F3FE44F670
:101A80007F77C0F2120700BF00BF7F1EFDD100BFED
:101A900000BF00BF0DF11A0B0BF1180ADFF82CC0C4
:101AA000FFF718FF0DF11A000221FFF7DBFEDDF84A
:101AB00000E00DB0704700BF0000A041CDCCCCBC11
:101AC0000C0000202C1F000010000020421F00000E
:101AD00081B0CDF800E0012200210020FFF76EFD6B
:101AE000002202210020FFF769FD0C48014600207A
:101AF000FFF74CFD4FF4E1312020FFF77BFE44F669
:101B00007F77C0F2120700BF00BF7F1EFDD100BF6C
:101B100000BF00BFDDF800E001B07047741F000097
:101B200081B002490248016001B0704740190100CC
:101B30005800002081B0FEE701B0704700F00EF8B9
:101B400000F060FAFFF7ECFF00F01CFAFFF7C0FFAF
:101B5000FFF71EFFFFF764FFFCE7FEE781B0CDF85B
:101B600000E04A4A4A4B4B4C4B4D03F0F000010950
:101B70004A484018007805FA00F10D464BF68030CF
:101B8000814206D94648006840F00201444801609D
:101B900011E045F6C050854206D94148006840F042
:101BA00001013F48016006E03D4801686FF0070011
:101BB00001403B480160FFF797FE3A4803603A480E
:101BC00004603A4802EA00013948016002F001006D
:101BD00040B119463648006800F00200002800D1E4
:101BE000F8E700E0194602F4803040B10B46304877
:101BF000006800F40030002800D1F8E700E00B4650
:101C000002F0805068B12A48006840F080512848AE
:101C100001602748006800F00050002800D1F8E774
:101C2000FFE702F0806078B12148006840F08061F1
:101C30001F48016011461A461D48006800F0006008
:101C4000002800D1F8E701E011461A4601F0807043
:101C500070B11748006840F0807115480160114666
:101C60001348006800F0007000B9F9E70A46FFE782
:101C70000C48006800F00C01900000F00C0081425C
:101C800000D0F5E7DDF800E001B070478100010504
:101C900002841D0044060100401901005A1F000083
:101CA00000200240041002402C100240FFFF0F00F1
:101CB000001002403800000039000000FFFFFFFF65
:101CC0000000000000000000000000000000000014
:101CD0000000000000000000000000000000000004
:101CE00000000000000000001808000018000000BC
:101CF00000000000000000000000000000000000E4
:101D000000000000000000000000000000000000D3
:101D10000000000000000000000000003000140877
:101D2000090000000A000000FFFFFFFF00000000A4
:101D300000000000000000000000000000000000A3
:101D40000000000000000000000000000000000093
:101D5000000000001808000018000000000000004B
:101D60000000000000000000000000000000000073
:101D70000000000000000000000000000000000063
:101D8000000000000000000004000000350000001A
:101D900036000000FFFFFFFF000000000000000011
:101DA0000000000000000000000000000000000033
:101DB0000000000000000000000000000000000023
:101DC00018080000180000000000000000000000DB
:101DD0000000000000000000000000000000000003
:101DE00000000000000000000000000000000000F3
:101DF00000000000080000082A0000002B0000007E
:101E00002C000000FFFFFFFF0000000000000000AA
:101E100000000000000000000000000000000000C2
:101E20000000000000000000000000001808000092
:101E30001808000018080000000000000000000062
:101E40000000000000000000000000000000000092
:101E50000000000000000000000000000000000082
:101E6000001120082D2D2D2D2D2D2D2D2D2D2D2D1D
:101E70002D2D2D2D2D2D2D2D2D2D2D2D2D2D2D2D92
:101E80002D2D2D2D2D002020202020202020202031
:101E90005246204D6574657220436C69636B202047
:101EA00020202020202020002D2D2D2D2D2D2D2DEA
:101EB0002D2D2D2D2D2D2D2D2D2D2D2D2D2D2D2D52
:101EC0002D2D2D2D2D2D2D2D2D00FFFFBD0F0000B3
:101ED000B10F0000191000000D10000001100000EB
:101EE000FD14000009150000E5140000F1140000C5
:101EF000D91400009D14000091140000FFFFFFFFA3
:101F0000FFFFFFFFFFFFFFFFFFFFFFFFFFFFFFFFE1
:101F1000FFFFFFFFFFFFFFFFFFFFFFFFFFFFFFFFD1
:101F2000FFFFFFFFFFFFFFFFFFFFFFFF5369676E2C
:101F3000616C20737472656E6768743A2000644245
:101F40006D002D2D2D2D2D2D2D2D2D2D2D2D2D2DAE
:101F50002D2D2D2D2D2D2D2D2D00000000000102E9
:101F6000030401020304060708094E614E00300015
:101F7000494E46000700000004030000810A0000EB
:101F80006D01000000B5DFF814B0DFF814A0DFF831
:101F900014C0FFF79FFC00BD704700BF0000002089
:101FA0000A0000206A1F0000FFFFFFFFFFFFFFFF86
:101FB000FFFFFFFFFFFFFFFFFFFFFFFFFFFFFFFF31
:101FC000FFFFFFFFFFFFFFFFFFFFFFFFFFFFFFFF21
:101FD000FFFFFFFFFFFFFFFFFFFFFFFFFFFFFFFF11
:101FE000FFFFFFFFFFFFFFFFFFFFFFFFFFFFFFFF01
:101FF000FFFFFFFFFFFFFFFFFFFFFFFFFFFFFFFFF1
:10200000FFFFFFFF00B5DFF810B0DFF810A0FFF70B
:10201000A1FC00BD704700BF00000020740000203C
:00000001FF
